:100000000C9482020C94B3020C94B3020C94B302CD
:100010000C94B3020C94B3020C94B3020C94B3028C
:100020000C94B3020C94B3020C94B3020C94B3027C
:100030000C94B3020C94B3020C94B3020C94B3026C
:100040000C94B3020C94B3020C94B3020C94B3025C
:100050000C94B3020C94B3020C94B3020C941D0FD5
:100060000C94B3020C94910F0C94670F0C94B30290
:100070000C94B3020C94B3020C94B3020C94B3022C
:100080000C94B3020C94B3020C94B3020C94B3021C
:100090000C94B3020C94B3020C94B3020C94C70FEB
:1000A0000C94B3020C94B3020C94B3020C94B302FC
:1000B0000C94B3020C94B3020C94B3020C94B302EC
:1000C0000C94B3020C94B3020C94B3020C94B302DC
:1000D0000C94B3020C94B3020C94B3020C94B302CC
:1000E0000C94B30207634236B79BD8A71A396856F7
:1000F00018AEBAAB558C1D3CB7CC5763BD6DEDFD4A
:10010000753EF6177231BF000000803F0800000006
:10011000BE922449123EABAAAA2ABECDCCCC4C3EFC
:1001200000000080BEABAAAAAA3E00000000BF00EB
:100130000000803F0000000000084178D3BB4387E7
:10014000D1133D190E3CC3BD4282AD2B3E68EC82FB
:1001500076BED98FE1A93E4C80EFFFBE01C4FF7F80
:100160003F00000000000C940E030C94F2020C946B
:1001700006030C9455040C940A030C9447040C9445
:10018000F1060C94E8020C94D3020C948E060C94A5
:10019000DA040C94F7030C94D9020C94E1020C9449
:1001A000DD020C94EB100C94EE020C946B060C9494
:1001B000E5020C948D040C9424040C94C2060C9457
:1001C00014030C94CA030C9495060C947B060C94AF
:1001D000FC020C94F8020C9413030C9433040C945A
:1001E0006C060C9418030C94CB030C9400030000D1
:1001F0002100240027002A002D00300033000101D7
:100200000000040107010A0120535720566572734C
:10021000696F6E2050617463683A20307800205313
:1002200057204275696C64204E756D6265723A2084
:100230003078002053572050617274204E756D62E3
:1002400065723A20307800205357205665727369E2
:100250006F6E204D696E6F723A20307800535720D0
:1002600056657273696F6E204D616A6F723A203005
:10027000780020726F746174696F6E566563746F75
:10028000725F51313A200020726177517561744B71
:100290003A2000676574517561744B3A207175613D
:1002A000743A200020726F746174696F6E566563D2
:1002B000746F725F51313A2000207261775175611D
:1002C000744A3A2000676574517561744A3A207126
:1002D0007561743A200020726F746174696F6E5694
:1002E0006563746F725F51313A20002072617751FB
:1002F000756174493A200067657451756174493AB3
:1003000020717561743A2000000022002500280049
:100310002B002E003100340002010000050108010D
:100320000B01000020002300260029002C002F00D4
:100330003200000100000301060109010505050561
:10034000070508080808020202020A0A080804044D
:10035000040401010101010101010303030303037B
:100360000303040707070C0C0C0C0C0C0C0C02020A
:10037000020206060606060606060B0B0B0B0B0B07
:100380000B0B010210202008081020401020408094
:100390000201020108040201010204081020408049
:1003A00080402010080402018004020180402010D7
:1003B0000804020108040201010204081020408020
:1003C000010204081020408000000A0B02090C0DF5
:1003D0000E080703040100000000000000000000F8
:1003E000000000000000000000000000000000000D
:1003F00000000000121110000000000000000000CA
:1004000000000000000000000000000000004D455A
:100410002043616C207265706F727420666F756E18
:1004200064210021004779726F2D766563746F72C5
:100430000057616B652D7265706F72740053656E45
:10044000736F722D7265706F727400436F6E747289
:100450006F6C0045786563757461626C6500436F0D
:100460006D6D616E6400204368616E6E656C3A006C
:10047000204C656E6774683A00205B436F6E746948
:100480006E756564207061636B65745D200030007B
:10049000200020426F64793A0030002000486561F6
:1004A0006465723A00300020004865616465723A04
:1004B000004932432074696D656F7574005350496B
:1004C00020494E542074696D656F7574005350490E
:1004D00020576169740073656E645061636B657465
:1004E00028493243293A20656E645472616E736DF7
:1004F000697373696F6E2072657475726E65643AA4
:100500002000EB1011241FBECFEFD1E2DEBFCDBF24
:1005100000E00CBF12E0A0E0B2E0EAE0F2E300E0AD
:100520000BBF02C007900D92A433B107D9F725E0A5
:10053000A4E3B2E001C01D92A230B207E1F712E0DD
:10054000C2E8D2E000E006C021970109802FFE0139
:100550000E942B15C138D10780E00807A9F70E9437
:100560005D110C9403190C9400008150823108F045
:100570005AC0E82FF0E08827EF53FD4F8F4F0C94BF
:100580002B15E102E502D302D902DD021303E802D2
:10059000EE02F202F802FC02000306030A03130350
:1005A0000E0314031803809180008F7780938000DE
:1005B0000895809180008F7DF9CF80918000877FA2
:1005C000F5CF84B58F7784BD089584B58F7DFBCF3B
:1005D0008091B0008F778093B00008958091B00033
:1005E0008F7DF9CF809190008F7780939000089550
:1005F000809190008F7DF9CF80919000877FF5CF1B
:100600008091A0008F778093A00008958091A00032
:100610008F7DF9CF8091A000877FF5CF8091200159
:100620008F77809320010895809120018F7DF9CFED
:1006300080912001877FF5CFCF93DF93282F30E083
:10064000F901E853FC4F8491F901EE57FC4FD49126
:10065000F901E45CFC4FC491CC23A1F081110E940C
:10066000B502EC2FF0E0EE0FFF1FEE5DFC4FA59101
:10067000B491EC91ED2381E090E009F480E0DF910A
:10068000CF91089580E090E0FACF1F93CF93DF934E
:10069000282F30E0F901E853FC4F8491F901EE571F
:1006A000FC4FD491F901E45CFC4FC491CC23A9F038
:1006B000162F81110E94B502EC2FF0E0EE0FFF1F04
:1006C000E85FFC4FA591B4918FB7F894EC911111AC
:1006D00008C0D095DE23DC938FBFDF91CF911F91AF
:1006E0000895DE2BF8CF3FB7F8948091AD0290913A
:1006F000AE02A091AF02B091B00226B5A89B05C092
:100700002F3F19F00196A11DB11D3FBFBA2FA92F90
:10071000982F8827BC01CD01620F711D811D911D8D
:1007200042E0660F771F881F991F4A95D1F70895F9
:100730008F929F92AF92BF92CF92DF92EF92FF92F1
:100740004B015C010E9473036B017C010E947303E7
:100750006C197D098E099F09683E734081059105DA
:10076000A8F321E0821A9108A108B10888EEC80E0A
:1007700083E0D81EE11CF11C81149104A104B10492
:1007800029F7FF90EF90DF90CF90BF90AF909F90B0
:100790008F90089508950895DC01ED91FC910190EA
:1007A000F081E02D1994EF92FF920F931F93CF9356
:1007B000DF938C017B01D0E0C0E0F701EC0FFD1F5F
:1007C0006491662361F0D801ED91FC910190F08174
:1007D000E02DC8011995892B11F02196EECFCE019D
:1007E000DF91CF911F910F91FF90EF900895AF92FD
:1007F000BF92CF92DF92EF92FF920F931F93CF930E
:10080000DF936C017B018B01040F151FEB015E016F
:10081000AE18BF08C017D10759F06991D601ED9104
:10082000FC910190F081E02DC6011995892B79F793
:10083000C501DF91CF911F910F91FF90EF90DF9055
:10084000CF90BF90AF900895FC01538D448D252F1C
:1008500030E0842F90E0821B930B541710F0CF965A
:10086000089501970895FC01918D828D981761F08C
:10087000A28DAE0FBF2FB11D5D968C91928D9F5FA3
:100880009F73928F90E008958FEF9FEF0895FC0182
:10089000918D828D981731F0828DE80FF11D858D35
:1008A00090E008958FEF9FEF0895FC01918D228DC8
:1008B000892F90E0805C9F4F821B91098F7399274D
:1008C000089583E293E00E94550421E0892B09F406
:1008D00020E0822F0895FC01A48DA80FB92FB11D2F
:1008E000A35ABF4F2C91848D90E001968F73992766
:1008F000848FA689B7892C93A089B1898C91837044
:1009000080648C93938D848D981306C00288F3893C
:10091000E02D80818F7D80830895EF92FF920F9369
:100920001F93CF93DF93EC0181E0888F9B8D8C8D9B
:1009300098131AC0E889F989808185FF15C09FB78F
:10094000F894EE89FF896083E889F9898081837052
:10095000806480839FBF81E090E0DF91CF911F9101
:100960000F91FF90EF900895F62E0B8D10E00F5F22
:100970001F4F0F731127E02E8C8D8E110CC00FB6F8
:1009800007FCFACFE889F989808185FFF5CFCE0190
:100990000E946B04F1CFEB8DEC0FFD2FF11DE35A9C
:1009A000FF4FF0829FB7F8940B8FEA89FB89808113
:1009B0008062CFCFCF93DF93EC01888D8823B9F08D
:1009C000AA89BB89E889F9898C9185FD03C080815A
:1009D00086FD0DC00FB607FCF7CF8C9185FFF2CFD7
:1009E000808185FFEDCFCE010E946B04E9CFDF91BE
:1009F000CF91089580E090E0892B29F00E94610456
:100A000081110E94000080E090E0892B49F080E095
:100A100090E0892B29F00E94000081110E940000C3
:100A200080E090E0892B49F080E090E0892B29F06C
:100A30000E94000081110E94000080E090E0892B5C
:100A400049F080E090E0892B29F00E94000081119C
:100A50000C940000089508958EBD00000DB407FEAB
:100A6000FDCF8EB508958CBD9DBD08952091550292
:100A7000260F3327331F21323105ECF42091F90280
:100A8000FC0190E080E0243069F082E00895A091BC
:100A900055022191AC014B5C5D4FA40FB52FB11DE8
:100AA0002C930196861798F380915502680F6093F6
:100AB000550280E0089581E008951092F90281E0E6
:100AC0008093F8021092D30261E084E10E94450312
:100AD00061E085E10E944503E9EBF0E080818E7FD3
:100AE000808380818D7F808388E48093B80085E453
:100AF0008093BC000895CF93DF9391E090933402EC
:100B00008823B9F0C091B800D091BA008091BC00A0
:100B10008A7B8093BC0060E084E10E94450360E032
:100B200085E10E9445030E945D05D093BA00C09301
:100B3000B800DF91CF910895CF92DF92EF92FF92AC
:100B40000F931F93CF93DF93D82FC62F613208F0F6
:100B500098C00E9473036B017C018091F90281119E
:100B60006BC081E08093F9028093F8029FEF90932D
:100B7000F7021092F6029C0F9093F5028093D40234
:100B80008091D402DD0FD82BD093D4028091D30270
:100B9000813009F078C01092D3020E9473036B0178
:100BA0007C018091D4028093BB008091FB029091E4
:100BB000FC02A091FD02B091FE02892B8A2B8B2BA7
:100BC000A1F00E9473030091FB021091FC0220919E
:100BD000FD023091FE026C197D098E099F090617EE
:100BE00017072807390708F448C08091BC0083FD27
:100BF000D8CF85EC8093BC000E9473036B017C010D
:100C00008091F902813009F440C08091F6028C177E
:100C100010F4C091F602E5EDF2E0A3EBB2E080E063
:100C20008C1355C08C2FDF91CF911F910F91FF90A6
:100C3000EF90DF90CF9008958091FB029091FC029D
:100C4000A091FD02B091FE02892B8A2B8B2B09F417
:100C500084CF0E9473030091FB021091FC0220914B
:100C6000FD023091FE026C197D098E099F0906175D
:100C700017072807390708F070CF8091FA020E9401
:100C80007B05C0E0CFCF85EEB5CF8091FB02909180
:100C9000FC02A091FD02B091FE02892B8A2B8B2BC6
:100CA00009F4AECF0E9473030091FB021091FC0285
:100CB0002091FD023091FE026C197D098E099F0979
:100CC000061717072807390708F09ACFD6CF919152
:100CD0009D938F5FA5CF0895E091B2028091B102FC
:100CE000E81730F4F0E0ED54FD4F808190E0089576
:100CF0008FEF9FEF08959091B2028091B1022FEF94
:100D00003FEF981748F4E92FF0E0ED54FD4F2081B4
:100D100030E09F5F9093B202C90108958091B102C3
:100D20009091B202891B990B0895CF92DF92EF92B6
:100D3000FF920F931F93CF93DF937C01CB018A0126
:100D400020912203222389F0EB016B01C40ED51EF2
:100D5000CC15DD0569F06991D701ED91FC91019009
:100D6000F081E02DC7011995F3CF642F0E9436055D
:100D7000C801DF91CF911F910F91FF90EF90DF900D
:100D8000CF900895CF93DF931F92CDB7DEB76983DD
:100D9000209122032223F9F020911F03203258F0E2
:100DA00021E030E0FC013383228390E080E00F906B
:100DB000DF91CF91089580912003E82FF0E0E1507A
:100DC000FD4F998190838F5F8093200380931F0351
:100DD00081E090E0ECCF61E0CE0101960E94360503
:100DE000F7CF90E080E008950F931F93FC0100E09F
:100DF00012E12AE730E090E04017510762077307DD
:100E000040F436952795179507959F5F9630A1F783
:100E100097E0292F286B26952083909591709183D8
:100E20001F910F910895CF92DF92EF92FF92CF938F
:100E3000C62FBC01990F880B990B0E9457166B01A6
:100E40007C016C2F70E0719561957109072E000C83
:100E5000880B990B0E9457169B01AC0160E070E073
:100E600080E090E40E9479179B01AC01C701B601B4
:100E70000E940C17CF91FF90EF90DF90CF900895D4
:100E8000FB0101900020E9F73197AF01461B570B9A
:100E9000DC01ED91FC910280F381E02D19948F9299
:100EA0009F92AF92BF92EF92FF920F931F93CF93B7
:100EB000DF93CDB7DEB7A1970FB6F894DEBF0FBEB4
:100EC000CDBF7C01FA01CB0119A2223008F42AE03F
:100ED0008E010F5D1F4F822E912CB12CA12CBF01D2
:100EE000A50194010E940915F901CA016A300CF5A7
:100EF000605DD8016E938D01232B242B252B79F770
:100F000090E080E0109721F0BD01C7010E944007EA
:100F1000A1960FB6F894DEBF0FBECDBFDF91CF9183
:100F20001F910F91FF90EF90BF90AF909F908F9087
:100F30000895695CDECF0C944F079A01AB0170E015
:100F400060E00C949B079A01462F50E070E060E04F
:100F50000C949B072F923F924F925F926F927F92D9
:100F60008F929F92AF92BF92CF92DF92EF92FF92B9
:100F70001F93CF93DF93EC016A017B01722EAB01CB
:100F80009601CB01B6010E94C91764E272E081119B
:100F900026C046015701E894B7F82FEF3FEF4FE71F
:100FA0005FE7C501B4010E94C91781110CC02FEF82
:100FB0003FEF4FE75FE7C501B4010E94AF1568E25C
:100FC00072E0181664F02FEF3FEF4FE75FE4C701C0
:100FD000B6010E9407171816B4F46CE272E0CE0155
:100FE000DF91CF911F91FF90EF90DF90CF90BF9056
:100FF000AF909F908F907F906F905F904F903F90B9
:101000002F900C9440072FEF3FEF4FE75FECC701A5
:10101000B6010E94AF1587FDE0CF20E030E0A901C6
:10102000C701B6010E94AF15312C212C87FF09C0E2
:101030006DE2CE010E94CC031C01F7FAF094F7F8A0
:10104000F09410E060E070E080E09FE3711641F002
:1010500020E030E040E251E40E94B4151F5FF6CF7B
:10106000A70196010E9443152B013C010E94261600
:101070004B015C012AE0BC01A401CE010E944F0794
:101080007C01E20CF31C1123B1F1C501B4010E94F3
:1010900055169B01AC01C301B2010E9442154B01E0
:1010A0005C016EE2CE010E94CC03E80EF91E1150E5
:1010B00010F120E030E040E251E4C501B4010E94AB
:1010C0000C172B013C010E9426164B014AE050E010
:1010D000CE010E949D07E80EF91EB40190E080E069
:1010E0000E9455169B01AC01C301B2010E9442153A
:1010F0004B015C01DCCFC701DF91CF911F91FF90C5
:10110000EF90DF90CF90BF90AF909F908F907F90A7
:101110006F905F904F903F902F90089560E372E042
:101120000C944007CF92DF92EF92FF920F931F93A0
:10113000CF93DF938C016B01770FEE08FF08F7FE6A
:101140001FC06DE20E94CC03EC0144275527BA0171
:101150004C195D096E097F092AE0C8010E944F07FA
:10116000C80FD91FC8010E948E088C0F9D1FDF91E8
:10117000CF911F910F91FF90EF90DF90CF90089546
:101180002AE0B701A6010E944F07EC01EBCF0F93B5
:101190001F93CF93DF93EC010E94D3038C01CE0108
:1011A0000E948E08800F911FDF91CF911F910F91A8
:1011B00008958F929F92AF92BF92CF92DF92EF925B
:1011C000FF920F931F93CF93DF931F921F92CDB780
:1011D000DEB7182F062F34E0E32EE60E80917B0455
:1011E00090917C04009709F076C02DE7F22E809153
:1011F00089040E941C03892B91F18091800488232B
:1012000041F06DEC74E080917E0490917F040E9427
:10121000C70861E070E080E090E00E949803FA94D3
:10122000F110E5CF80918004811110C080E00F9013
:101230000F90DF91CF911F910F91FF90EF90DF9072
:10124000CF90BF90AF909F908F9008956DEB74E01A
:1012500080917E0490917F040E94C708E7CF40915F
:101260008304509184046091850470918604CE01BA
:1012700001960E94F40689819A810E94330560E0FC
:10128000809187040E9445038E2D0E942C0580E0EA
:101290000E942C05812F0E942C05A12FB0E0A05B9D
:1012A000BB4F8C9191E0980F9C930E942C0590ED80
:1012B000E92E93E0F92E10E0D7018D917D010E9477
:1012C0002C051F5F0113F8CF61E0809187040E9415
:1012D000450381E0ACCF20917D0431E030932203BF
:1012E000209321031092200310921F03DC01ED9143
:1012F000FC910190F081E02D6E2D199580917B0479
:1013000090917C04DC01ED91FC910190F081E02D45
:1013100060E0199580917B0490917C04DC01ED9153
:10132000FC910190F081E02D612F199580917B0453
:1013300090917C04DC01ED91FC910190F081E02D15
:10134000A12FB0E0A05BBB4F6C9121E0260F2C9346
:10135000199580EDE82E83E0F82E10E080917B0453
:1013600090917C04F70161917F01DC01ED91FC918A
:101370000190F081E02D19951F5F0113EFCF0091CF
:101380001F0311E0013208F09DC0109121030E945B
:1013900073036B017C018091F90281116DC082E0C1
:1013A0008093F90281E08093F8028FEF8093F70237
:1013B0001092F6020093F502AFEFB2E0E5EDF2E035
:1013C00080E00813A3C01092D4029091D402812F20
:1013D000880F892B8093D4028091D302813009F049
:1013E00099C01092D3020E9473036B017C0180911B
:1013F000D4028093BB008091FB029091FC02A091EB
:10140000FD02B091FE02892B8A2B8B2BA1F00E944A
:1014100073030091FB021091FC022091FD023091B8
:10142000FE026C197D098E099F0906171707280708
:10143000390708F442C08091BC0083FDD8CF85EC09
:101440008093BC000E9473036B017C018091F902C0
:10145000823009F461C08091F70210E08F3F91F172
:101460008091F70212E0803269F18091F70214E076
:10147000803341F513E026C08091FB029091FC027D
:10148000A091FD02B091FE02892B8A2B8B2B09F4CF
:1014900082CF0E9473038090FB029090FC02A09088
:1014A000FD02B090FE026C197D098E099F09861617
:1014B0009706A806B90608F06ECF8091FA020E943E
:1014C0007B0515E01092200310921F031092220357
:1014D000112309F4FECE80918004882309F4A6CE5E
:1014E00066ED74E080917E0490917F040E94D303A6
:1014F000E0907E04F0907F044AE050E0612FC70145
:101500000E94A307C7010E948E0890CE9D919193DF
:101510008F5F57CF85EE94CF8091FB029091FC02B4
:10152000A091FD02B091FE02892B8A2B8B2B09F42E
:101530008DCF0E9473030091FB021091FC02209159
:10154000FD023091FE026C197D098E099F09061774
:1015500017072807390708F079CFAFCF482F9B012D
:10156000A8EEB3E00E943315ECECF3E09DEF94831A
:101570004583168217821086618772878387148657
:10158000158616861786108A118A128A138A148A7B
:1015900061E182E00C94D908CF93C4E680917B048A
:1015A00090917C04DC01ED91FC910084F185E02DAB
:1015B000199518161906BCF061E070E080E090E023
:1015C0000E949803C15051F780918004882349F00C
:1015D00061EB74E080917E0490917F040E94C708C3
:1015E00080E0CF91089581E0FCCFAF92BF92CF927F
:1015F000DF92EF92FF920F931F93CF93DF931F928F
:101600001F92CDB7DEB780917B0490917C04892B2B
:1016100009F06FC1809189040E941C03019771F445
:1016200080E00F900F90DF91CF911F910F91FF906D
:10163000EF90DF90CF90BF90AF90089540918304DA
:10164000509184046091850470918604CE010196C6
:101650000E94F40689819A810E94330560E080919E
:1016600087040E94450380E00E942C05082F80E03B
:101670000E942C05182F80E00E942C05F82E80E097
:101680000E942C050093CC031093CD03F092CE035F
:101690008093CF03C8019F770097E9F5809180047C
:1016A000882309F4BDCF69EA74E080917E049091AB
:1016B0007F040E94D3030CEC13E050EDE52E53E0C1
:1016C000F52E67EA74E080917E0490917F040E9479
:1016D000D303D8018D918D01803140F465EA74E027
:1016E00080917E0490917F040E94D30340E150E0FA
:1016F000F8013197608180917E0490917F040E946F
:10170000A307E016F106E9F680917E0490917F042C
:101710000E948E0885CF8C0104501109F12CE12C18
:10172000E016F10678F48FEF0E942C05B0E8EB1676
:10173000F10420F4F701E453FC4F8483EFEFEE1A39
:10174000FE0AEECF61E0809187040E9445038091FC
:101750008004882309F4A2C00091CC031091CD032A
:101760006DE974E080917E0490917F040E94D30320
:101770004CECE42E43E0F42E6BE974E080917E049F
:1017800090917F040E94D303D7018D917D01803118
:1017900040F469E974E080917E0490917F040E9496
:1017A000D30340E150E0F7013197608180917E04DE
:1017B00090917F040E94A307B0EDEB16B3E0FB0607
:1017C000D9F63CEFC32EC00EE8E2EC1510F428E287
:1017D000C22E62E974E080917E0490917F040E94A1
:1017E000D30390EDE92E93E0F92ED12C80917E0465
:1017F00090917F04CD1401F160E974E00E94D3035D
:101800005701D7018C91803140F46EE874E08091EB
:101810007E0490917F040E94D303BFEFEB1AFB0A72
:1018200040E150E0F501608180917E0490917F0459
:101830000E94A307D394DACF17FF05C069E774E0CD
:101840000E94C7081F7760E774E080917E04909142
:101850007F040E94D3034AE050E0B80180917E04E7
:1018600090917F040E949D0766E674E080917E045B
:1018700090917F040E94D3036091CE0380917E04F7
:1018800090917F04611117C06EE574E00E94D3034C
:1018900080917E0490917F040E948E088091CE03F7
:1018A000813009F0DCC08091D003813009F0D7C0CD
:1018B00080938B04B6CE613019F463E574E0E6CF13
:1018C000623019F46BE474E0E1CF633019F46DE336
:1018D00074E0DCCF643019F461E374E0D7CF653095
:1018E00019F465E274E0D2CF4AE050E00E94A30709
:1018F000CFCF64E080917D040E949C051092B202DB
:101900008093B1020E94CC0A882309F489CE809189
:101910007B0490917C04DC01ED91FC910284F385C1
:10192000E02D1995F82E80917B0490917C04DC01C8
:10193000ED91FC910284F385E02D1995E82E8091BC
:101940007B0490917C04DC01ED91FC910284F38591
:10195000E02D1995182F80917B0490917C04DC0177
:10196000ED91FC910284F385E02D1995F092CC0362
:10197000E092CD031093CE038093CF0300E01E2DA1
:101980000F291F770115110509F44ACE04501109DA
:10199000D12CC12C0115110509F480CF78010D312E
:1019A000110518F08CE1E82EF12C64E06E0D8091A9
:1019B0007D040E949C051092B2028093B1020E94A5
:1019C000CC0A882309F46ACF80917B0490917C042F
:1019D000DC01ED91FC910284F385E02D1995809155
:1019E0007B0490917C04DC01ED91FC910284F385F1
:1019F000E02D199580917B0490917C04DC01ED91A0
:101A0000FC910284F385E02D199580917B049091DF
:101A10007C04DC01ED91FC910284F385E02D1995A5
:101A2000B12CBE141F04C0F480917B0490917C04FF
:101A3000DC01ED91FC910284F385E02D1995B0E86D
:101A4000CB16D10438F4F601E453FC4F8483F6013D
:101A500031966F01B394E5CF0E191F099BCF81E03A
:101A6000E0CD0F931F93CF93DF93E091CC03F091E0
:101A7000CD03FF7734974091D4036091D2037091E6
:101A8000D3032091D1038091D1039091D203A091EF
:101A9000D303B091D4038093D7049093D804A09338
:101AA000D904B093DA048091D7030091DA0310913E
:101AB000D9039091D5033091CE033530C1F5809193
:101AC000D003322F282F3093BB042093BA04709395
:101AD000BD046093BC04592F5093BF044093BE04CF
:101AE0008091D6039091D7039093C1048093C00452
:101AF0008091D8039091D9039093C7048093C60432
:101B00008091DA039091DB039093C9048093C80419
:101B10008091DC039091DD039093CB048093CA0401
:101B20008AE290E0DF91CF911F910F910895837029
:101B30006091D9037091DA034091DB035091DC038B
:101B40002091DD033091DE03EF30F10544F1C091C7
:101B5000DF03D091E003E131F10544F1A091E1030D
:101B6000B091E2037397FCF0E091E303F091E4039A
:101B70009130F9F490E090939304809392047093E1
:101B80008D0460938C0450938F0440938E043093A3
:101B90009104209390048091D50390E0C3CFB0E0EE
:101BA000A0E0D0E0C0E0F0E0E0E0E2CFB0E0A0E014
:101BB000FACF943091F490E090939B0480939A0430
:101BC0007093950460939404509397044093960403
:101BD0003093990420939804DECF923091F490E0F2
:101BE0009093A3048093A20470939D0460939C043B
:101BF00050939F0440939E043093A1042093A0042B
:101C0000CACF9730F1F490E09093B1048093B00480
:101C10007093A5046093A4045093A7044093A60472
:101C20003093A9042093A804D093AB04C093AA04D2
:101C3000B093AD04A093AC04F093AF04E093AE0472
:101C4000AACF933091F490E09093B9048093B804B4
:101C50007093B3046093B2045093B5044093B404FA
:101C60003093B7042093B60496CF953031F0983076
:101C700021F0E8EDE90FE230D0F490E09093C50454
:101C80008093C4047093BB046093BA045093BD0462
:101C90004093BC043093BF042093BE04D093C1048E
:101CA000C093C004B093C304A093C20474CF903116
:101CB00019F41093D4046FCF913129F43093D604E2
:101CC0002093D50468CF933119F41093DB0463CFCC
:101CD0009E3199F40093DC04ABEDB3E090E080E03A
:101CE0002D91E091DD04F091DE04E80FF91F2083CF
:101CF000019689309105A1F74ECF943169F4709324
:101D0000E1046093E0045093E3044093E2043093D1
:101D1000E5042093E4043FCF953169F47093E70420
:101D20006093E6045093E9044093E8043093EB0495
:101D30002093EA0430CF963169F47093ED046093F8
:101D4000EC045093EF044093EE043093F10420939D
:101D5000F00421CF913F11F580918004882341F058
:101D600063E274E080917E0490917F040E94C70832
:101D70008091D703873009F00ECF809180048823AB
:101D800041F06EE074E080917E0490917F040E94A7
:101D9000C7088091DA038093DF04FDCE963091F47A
:101DA00090E09093D3048093D2047093CD04609319
:101DB000CC045093CF044093CE043093D1042093AD
:101DC000D004E9CE90E080E0ADCE85ED8093BC00FC
:101DD0008091FB029091FC02A091FD02B091FE0265
:101DE0000796A11DB11D23E0B695A79597958795F8
:101DF0002A95D1F72091BC0024FD03C01092F9026E
:101E000008954091FB025091FC026091FD02709197
:101E1000FE02452B462B472B69F30097A105B10520
:101E200041F02AE22A95F1F700C00197A109B10912
:101E3000E1CF8091FA020C947B051F920F920FB6AE
:101E40000F9211242F933F938F939F93AF93BF9340
:101E50008091A9029091AA02A091AB02B091AC022C
:101E60003091A80223E0230F2D3758F50196A11DCC
:101E7000B11D2093A8028093A9029093AA02A09377
:101E8000AB02B093AC028091AD029091AE02A091F2
:101E9000AF02B091B0020196A11DB11D8093AD02B9
:101EA0009093AE02A093AF02B093B002BF91AF91F6
:101EB0009F918F913F912F910F900FBE0F901F9088
:101EC000189526E8230F0296A11DB11DD2CF1F92AF
:101ED0000F920FB60F9211240BB60F922F933F93D0
:101EE0004F935F936F937F938F939F93AF93BF9322
:101EF000EF93FF9383E293E00E946B04FF91EF91D5
:101F0000BF91AF919F918F917F916F915F914F9111
:101F10003F912F910F900BBE0F900FBE0F901F900F
:101F200018951F920F920FB60F9211240BB60F92B5
:101F30002F938F939F93EF93FF93E0913303F0914F
:101F400034038081E0913903F0913A0382FD1DC092
:101F5000908180913C038F5F8F7320913D038217A6
:101F600041F0E0913C03F0E0ED5DFC4F958F8093F4
:101F70003C03FF91EF919F918F912F910F900BBE9A
:101F80000F900FBE0F901F9018958081F2CF1F9277
:101F90000F920FB60F9211240BB60F922F933F930F
:101FA0004F935F936F937F938F939F93AF93BF9361
:101FB000EF93FF938091B900887F803609F44DC07C
:101FC00008F040C0883209F4A9C028F5803109F42E
:101FD0009DC0C8F4882309F4FBC0883009F496C07A
:101FE000FF91EF91BF91AF919F918F917F916F91F1
:101FF0005F914F913F912F910F900BBE0F900FBEAD
:102000000F901F901895883109F488C0803241F7ED
:102010008093F70214C0803409F49DC040F48033EB
:10202000B9F38833E9F68093F70285ECB0C08035C8
:1020300009F485C0883509F496C0883489F60E9471
:10204000E50ECECF883909F48CC038F5883729F0F1
:1020500050F4883611F0803719F683E08093F90246
:102060001092770257C0883809F47BC0803919F084
:10207000803809F0B5CF80917702803208F071C0C6
:10208000E091770281E08E0F809377028091BB0010
:10209000F0E0E95AFD4F80833DC0803B39F0E0F429
:1020A000803A09F479C0883A09F09ACF84E08093A5
:1020B000F9021092560210925502E0917A02F091C4
:1020C0007B0219958091550281110FC081E08093A8
:1020D00055021092350209C0803C09F4A6CF883C15
:1020E00009F4A3CF883B09F07BCFE091560281E051
:1020F0008E0F80935602F0E0EB5CFD4F8081809361
:10210000BB00909156028091550229C08091D40263
:102110008093BB0085EC8093BC0062CF9091F60267
:102120008091F502981758F5E091F60281E08E0F44
:102130008093F602F0E0EB52FD4F8081E9CFE09111
:10214000F60281E08E0F8093F6028091BB00F0E0F2
:10215000EB52FD4F80839091F6028091F502981723
:10216000C8F285E8D8CFE091F60281E08E0F809327
:10217000F6028091BB00F0E0EB52FD4F808380912E
:10218000F80281115CCF81E08093D30284EA8093CE
:10219000BC001092F90224CF85EC8093BC00109211
:1021A000F90280917702803230F4E0917702F0E01A
:1021B000E95AFD4F10826091770270E0E091780259
:1021C000F091790287E592E019951092770208CF95
:1021D0001092F70234CFE3E2F3E01382128288EE2A
:1021E00093E0A0E0B0E084839583A683B78324E0E6
:1021F00032E03183208325EC30E03587248724ECDE
:1022000030E03787268720EC30E0318B208B21ECC3
:1022100030E0338B228B22EC30E0358B248B26ECA4
:1022200030E0378B268B118E128E138E148EE0ECDD
:10223000F3E01382128284839583A683B78386E1B9
:1022400092E091838083E0E5F4E086E0DF011D9277
:102250008A95E9F7109256041092800410928B042C
:102260008EE090E09093F3048093F2048CE090E091
:102270009093F5048093F40488E090E09093F70441
:102280008093F6049093F9048093F80429E030E0F9
:102290003093FB042093FA0424E030E03093FD04F3
:1022A0002093FC042AE030E03093FF042093FE04E6
:1022B00090930105809300050895789484B5826019
:1022C00084BD84B5816084BD85B5826085BD85B5DA
:1022D000816085BD80916E00816080936E00109258
:1022E00081008091810082608093810080918100D3
:1022F0008160809381008091800081608093800064
:102300008091B10084608093B1008091B0008160C1
:102310008093B000809191008260809391008091C1
:102320009100816080939100809190008160809302
:1023300090008091A10082608093A1008091A10013
:1023400081608093A1008091A00081608093A000B3
:10235000809121018260809321018091210181601F
:1023600080932101809120018160809320018091E0
:102370007A00846080937A0080917A0082608093F2
:102380007A0080917A00816080937A0080917A004F
:10239000806880937A001092C100E0913303F0913D
:1023A000340382E08083E0912F03F09130031082A8
:1023B000E0913103F091320380E1808310923B037E
:1023C000E0913703F091380386E08083E091350394
:1023D000F0913603808180618083E0913503F09134
:1023E0003603808188608083E0913503F091360365
:1023F000808180688083E0913503F091360380818D
:102400008F7D808368EE73E080E090E00E94980307
:10241000E3E9F3E02491EDE4F3E08491882399F07B
:1024200090E0880F991FFC01E251FE4FA591B491F5
:10243000FC01E85FFC4F859194918FB7F894EC9183
:10244000E22BEC938FBF60E081E10E94450368E5D9
:1024500072E080E090E00E94980361E081E10E94D8
:10246000450368E572E080E090E00E9498031092D6
:10247000B2021092B1021092200310921F030E9428
:102480005D058AEC93E090937B0280937A028BEC5B
:1024900093E0909379028093780288E48093B80067
:1024A0008BE480937D0480EC93E090937C04809394
:1024B0007B048FEF8093890481E08093D00361E0F7
:1024C0000E94D90862E370E080E090E00E949803E7
:1024D0000E94F50A8111FCCF62E370E080E090E099
:1024E0000E9498030E94F50A8111FCCF89EF809326
:1024F000D0031092D10362E082E00E94D9080E94CA
:10250000F50A882309F493C08091D003883F09F02D
:102510008EC080918004882309F46FC06DE572E05D
:1025200080917E0490917F040E94D30340E150E0AB
:102530006091D20380917E0490917F040E94A30752
:1025400067E472E080917E0490917F040E94D3033F
:1025500040E150E06091D30380917E0490917F042C
:102560000E94A307C090D403D090D503E090D60377
:10257000F090D70363E372E080917E0490917F0432
:102580000E94D30320E1B701A60180917E049091BF
:102590007F040E944F07C090D803D090D903E090E9
:1025A000DA03F090DB036EE172E080917E0490919B
:1025B0007F040E94D30320E1B701A60180917E042D
:1025C00090917F040E944F07C090DC03D090DD0300
:1025D00068E072E080917E0490917F040E94D303B2
:1025E000E0907E04F0907F0440E150E0B601C70126
:1025F0000E949D07C7010E948E0864E170E085E09B
:102600000E94AE0A64E170E081E00E94AE0A64E1DB
:1026100070E082E00E94AE0A809189048F3F71F4DD
:102620000E94F50A81110FC00E94FA04F5CF6AE0FA
:1026300070E080E090E00E949803DFCF0E941C03CE
:10264000019771F7F1CF8091CE03833009F0CCC1AF
:102650008091D0038B3F41F70E94310D892B21F3EC
:102660008DE00E941C0361E0892B09F060E08DE0A1
:102670000E9445032FB7F8948091A9029091AA0275
:10268000A091AB02B091AC022FBF80937C029093DB
:102690007D02A0937E02B0937F026091F20480914C
:1026A000BA049091BB040E9413076B017C018091D6
:1026B0008004882309F44BC020E030E040E85FEB61
:1026C000C701B6010E94AF1587FD0AC020E030E0C7
:1026D00040E85FE3C701B6010E9407171816BCF572
:1026E00067EF72E080917E0490917F040E94D30393
:1026F00022E0B701A60180917E0490917F040E94A0
:10270000AA076BEE72E080917E0490917F040E9494
:10271000D3036091BA047091BB044AE050E0809109
:102720007E0490917F040E949D0766ED72E0809187
:102730007E0490917F040E94D3036091F204709113
:10274000F30480917E0490917F040E949208C092CD
:102750008002D0928102E0928202F0928302609124
:10276000F2048091BC049091BD040E9413076B0198
:102770007C0180918004882309F44BC020E030E084
:1027800040E85FEBC701B6010E94AF1587FD0AC0A4
:1027900020E030E040E85FE3C701B6010E94071780
:1027A0001816BCF565EC72E080917E0490917F0470
:1027B0000E94D30322E0B701A60180917E0490918C
:1027C0007F040E94AA0769EB72E080917E049091D9
:1027D0007F040E94D3036091BC047091BD044AE061
:1027E00050E080917E0490917F040E949D0764EAEE
:1027F00072E080917E0490917F040E94D3036091E7
:10280000F2047091F30480917E0490917F040E9401
:102810009208C0928402D0928502E0928602F092E1
:1028200087026091F2048091BE049091BF040E94DF
:1028300013076B017C0180918004882309F44BC04D
:1028400020E030E040E85FEBC701B6010E94AF1521
:1028500087FD0AC020E030E040E85FE3C701B60131
:102860000E9407171816BCF563E972E080917E0498
:1028700090917F040E94D30322E0B701A6018091CA
:102880007E0490917F040E94AA0767E872E080911D
:102890007E0490917F040E94D3036091BE047091E6
:1028A000BF044AE050E080917E0490917F040E9432
:1028B0009D0762E772E080917E0490917F040E9400
:1028C000D3036091F2047091F30480917E0490919F
:1028D0007F040E949208C0928802D0928902E092FE
:1028E0008A02F0928B026091F2048091C004909170
:1028F000C1040E94130760938C0270938D02809331
:102900008E0290938F02F090F6046F2D80918C04CC
:1029100090918D040E94130760939002709391022E
:1029200080939202909393026F2D80918E049091E8
:102930008F040E9413076093940270939502809312
:102940009602909397026F2D80919004909191043C
:102950000E941307609398027093990280939A02E1
:1029600090939B02F090FA046F2D80919C049091BB
:102970009D040E94130760939C0270939D028093B4
:102980009E0290939F026F2D80919E0490919F04D0
:102990000E9413076093A0027093A1028093A20289
:1029A0009093A3026F2D8091A0049091A1040E94A6
:1029B00013076093A4027093A5028093A6029093DC
:1029C000A7026AEA83E293E00E948D046AEA83E246
:1029D00093E00E948D044CE250E06CE772E083E2E9
:1029E00093E00E94F70320CE823079F48091D003E7
:1029F000813F09F019CE8091D203873009F030CEA3
:102A00008091D5038093DF042BCE853009F00CCE66
:102A100023CEA1E21A2EAA1BBB1BFD010DC0AA1FCB
:102A2000BB1FEE1FFF1FA217B307E407F50720F037
:102A3000A21BB30BE40BF50B661F771F881F991FB2
:102A40001A9469F760957095809590959B01AC01FB
:102A5000BD01CF010895EE0FFF1F881F8BBF0790A8
:102A6000F691E02D1994A29FB001B39FC001A39FDE
:102A7000700D811D1124911DB29F700D811D1124B7
:102A8000911D08955058BB27AA270E945A150C94EF
:102A9000CD160E94BF1638F00E94C61620F039F4F9
:102AA0009F3F19F426F40C94BC160EF4E095E7FB56
:102AB0000C94B616E92F0E94DE1658F3BA17620777
:102AC00073078407950720F079F4A6F50C94001796
:102AD0000EF4E0950B2EBA2FA02D0B01B901900139
:102AE0000C01CA01A0011124FF27591B99F0593F7D
:102AF00050F4503E68F11A16F040A22F232F342FC5
:102B00004427585FF3CF469537952795A795F04012
:102B10005395C9F77EF41F16BA0B620B730B840B27
:102B2000BAF09150A1F0FF0FBB1F661F771F881FDF
:102B3000C2F70EC0BA0F621F731F841F48F4879537
:102B400077956795B795F7959E3F08F0B0CF939529
:102B5000880F08F09927EE0F9795879508950E94A2
:102B6000921608F481E008950E94C8150C94CD16C1
:102B70000E94C61658F00E94BF1640F029F45F3F2D
:102B800029F00C94B61651110C9401170C94BC1634
:102B90000E94DE1668F39923B1F3552391F3951B38
:102BA000550BBB27AA2762177307840738F09F5F6E
:102BB0005F4F220F331F441FAA1FA9F335D00E2EDB
:102BC0003AF0E0E832D091505040E695001CCAF748
:102BD0002BD0FE2F29D0660F771F881FBB1F26170B
:102BE00037074807AB07B0E809F0BB0B802DBF01E2
:102BF000FF2793585F4F3AF09E3F510578F00C94B1
:102C0000B6160C9401175F3FE4F3983ED4F3869513
:102C100077956795B795F7959F5FC9F7880F911DD1
:102C20009695879597F90895E1E0660F771F881FBD
:102C3000BB1F621773078407BA0720F0621B730B70
:102C4000840BBA0BEE1F88F7E09508950E94E616F4
:102C500088F09F5798F0B92F9927B751B0F0E1F05D
:102C6000660F771F881F991F1AF0BA95C9F714C00D
:102C7000B13091F00E940017B1E008950C94001754
:102C8000672F782F8827B85F39F0B93FCCF3869546
:102C900077956795B395D9F73EF4909580957095A3
:102CA00061957F4F8F4F9F4F0895E89409C097FB20
:102CB0003EF490958095709561957F4F8F4F9F4F13
:102CC0009923A9F0F92F96E9BB279395F695879557
:102CD00077956795B795F111F8CFFAF4BB0F11F41A
:102CE00060FF1BC06F5F7F4F8F4F9F4F16C08823C1
:102CF00011F096E911C0772321F09EE8872F762FF7
:102D000005C0662371F096E8862F70E060E02AF037
:102D10009A95660F771F881FDAF7880F9695879523
:102D200097F90895990F0008550FAA0BE0E8FEEFF8
:102D300016161706E807F907C0F012161306E4077F
:102D4000F50798F0621B730B840B950B39F40A2678
:102D500061F0232B242B252B21F408950A2609F456
:102D6000A140A6958FEF811D811D089597F99F675A
:102D700080E870E060E008959FEF80EC0895002403
:102D80000A941616170618060906089500240A94D0
:102D900012161306140605060895092E0394000C56
:102DA00011F4882352F0BB0F40F4BF2B11F460FFE5
:102DB00004C06F5F7F4F8F4F9F4F089557FD90580E
:102DC000440F551F59F05F3F71F04795880F97FBEF
:102DD000991F61F09F3F79F08795089512161306A9
:102DE0001406551FF2CF4695F1DF08C016161706D8
:102DF0001806991FF1CF869571056105089408950D
:102E0000E894BB2766277727CB0197F908950E949E
:102E1000921608F48FEF08950E941F170C94CD1698
:102E20000E94BF1638F00E94C61620F0952311F0BC
:102E30000C94B6160C94BC1611240C9401170E9425
:102E4000DE1670F3959FC1F3950F50E0551F629FFA
:102E5000F001729FBB27F00DB11D639FAA27F00DF3
:102E6000B11DAA1F649F6627B00DA11D661F829F1A
:102E70002227B00DA11D621F739FB00DA11D621FFF
:102E8000839FA00D611D221F749F3327A00D611D1C
:102E9000231F849F600D211D822F762F6A2F1124FE
:102EA0009F5750409AF0F1F088234AF0EE0FFF1F31
:102EB000BB1F661F771F881F91505040A9F79E3F88
:102EC000510580F00C94B6160C9401175F3FE4F3A3
:102ED000983ED4F3869577956795B795F795E795DE
:102EE0009F5FC1F7FE2B880F911D9695879597F9E7
:102EF0000895FA01EE0FFF1F309621053105A1F16B
:102F00006115710561F48038BFE39B0749F168944E
:102F10009038810561F08038BFEF9B0741F099231D
:102F20004AF5FF3FE1053105210519F1E8940894C0
:102F3000E795D901AA2329F4AB2FBE2FF85FD0F370
:102F400010C0FF5F70F4A695E0F7F73950F019F064
:102F5000FF3A38F49F779F930DD00F9007FC90585D
:102F6000089546F00C94BC1660E070E080E89FE3A2
:102F700008954FE79F775F934F933F932F930E945E
:102F800079182F913F914F915F910E940C170C94EB
:102F9000D6170E949216880B990B089529F416F003
:102FA0000C94B6160C9400170C94BC160E94E616EE
:102FB000A8F39638A0F707F80F92E8942BE33AEAC3
:102FC00048EB5FE70E9422170F920F920F924DB7C6
:102FD0005EB70F920E94C118E4EEF0E00E9408185C
:102FE0004F915F91EF91FF91E595EE1FFF1F49F023
:102FF000FE57E0684427EE0F441FFA95E1F741952C
:10300000550B0E943B180F9007FE0C942F18089543
:10301000DF93CF931F930F93FF92EF92DF927B0189
:103020008C01689406C0DA2EEF010E941F17FE0182
:10303000E894A5912591359145915591A6F3EF011D
:103040000E945A15FE019701A801DA9469F7DF90F2
:10305000EF90FF900F911F91CF91DF9108959B0109
:10306000AC0160E070E080E89FE30C94B4150C9430
:10307000B6160C94F5180E94E616D8F39923C9F3F6
:10308000940F511DA3F39150504094F059F08823B0
:1030900032F0660F771F881F91505040C1F79E3F56
:1030A00051052CF7880F911D9695879597F90895EE
:1030B0005F3FACF0983E9CF0BB278695779567956F
:1030C000B79508F4B1609395C1F7BB0F58F711F4A9
:1030D00060FFE8CF6F5F7F4F8F4F9F4FE3CF0C9420
:1030E000011716F00C94F5180C94BC1668940C9407
:1030F000B6160E94E616A8F39923C1F3AEF3DF9348
:10310000CF931F930F93FF92C92FDD2788232AF0B7
:103110002197660F771F881FDAF720E030E040E83C
:103120005FEB9FE3883920F0803E38F021968F775F
:103130000E944315ECE0F1E004C00E944315E9E36E
:10314000F1E00E9408188B01BE01EC01FB2E6F57C5
:1031500071097595771F880B990B0E94571628E106
:1031600032E741E35FE30E941F17AF2D9801AE01E4
:10317000FF900F911F91CF91DF910E945A150C94EF
:10318000CD16FA01DC01AA0FBB1F9B01AC01BF5792
:1031900028F4222733274427507820C0B75190F4D1
:1031A000AB2F0024469537952795011CA395D2F3A4
:1031B000002071F0220F331F441FB395DAF30ED0B5
:1031C0000C94421561307105A0E88A07B94630F4C5
:1031D0009B01AC016627772788279078309621F0ED
:1031E000208331834283538308959F3F31F0915070
:1031F00020F4879577956795B795880F911D9695DB
:0A320000879597F90895F894FFCF21
:10320A00000000008D04F7032404DA045504330493
:10321A00470400000000C2069506F1066B068E06FA
:10322A007B066C066E616E00696E66006F766600DC
:04323A000D0A000079
:00000001FF
